{
  "contractName": "digital_identity",
  "abi": [
    {
      "inputs": [],
      "payable": false,
      "stateMutability": "nonpayable",
      "type": "constructor",
      "signature": "constructor"
    },
    {
      "constant": false,
      "inputs": [
        {
          "name": "_name",
          "type": "string"
        },
        {
          "name": "_aadhar_number",
          "type": "uint256"
        }
      ],
      "name": "addUser",
      "outputs": [
        {
          "name": "",
          "type": "address"
        }
      ],
      "payable": false,
      "stateMutability": "nonpayable",
      "type": "function",
      "signature": "0x1c5220c2"
    },
    {
      "constant": false,
      "inputs": [
        {
          "name": "_addr",
          "type": "address"
        },
        {
          "name": "_age",
          "type": "uint256"
        }
      ],
      "name": "updateUserAge",
      "outputs": [],
      "payable": false,
      "stateMutability": "nonpayable",
      "type": "function",
      "signature": "0x2e071db3"
    },
    {
      "constant": false,
      "inputs": [
        {
          "name": "_addr",
          "type": "address"
        },
        {
          "name": "_PAN",
          "type": "uint256"
        }
      ],
      "name": "updateUserPAN",
      "outputs": [],
      "payable": false,
      "stateMutability": "nonpayable",
      "type": "function",
      "signature": "0x94810670"
    },
    {
      "constant": false,
      "inputs": [
        {
          "name": "_addr",
          "type": "address"
        },
        {
          "name": "_salary",
          "type": "uint256"
        }
      ],
      "name": "updateUserSalary",
      "outputs": [],
      "payable": false,
      "stateMutability": "nonpayable",
      "type": "function",
      "signature": "0xa4bea887"
    },
    {
      "constant": true,
      "inputs": [],
      "name": "viewOwnData",
      "outputs": [
        {
          "name": "",
          "type": "string"
        },
        {
          "name": "",
          "type": "uint256"
        },
        {
          "name": "",
          "type": "uint256"
        },
        {
          "name": "",
          "type": "uint256"
        },
        {
          "name": "",
          "type": "uint256"
        },
        {
          "name": "",
          "type": "address[]"
        }
      ],
      "payable": false,
      "stateMutability": "view",
      "type": "function",
      "signature": "0xca6c0802"
    },
    {
      "constant": false,
      "inputs": [
        {
          "name": "_addr",
          "type": "address"
        }
      ],
      "name": "permitToView",
      "outputs": [],
      "payable": false,
      "stateMutability": "nonpayable",
      "type": "function",
      "signature": "0xe28acd58"
    },
    {
      "constant": true,
      "inputs": [
        {
          "name": "_addrWhosDataToBeSeen",
          "type": "address"
        }
      ],
      "name": "viewOthersData",
      "outputs": [
        {
          "name": "",
          "type": "string"
        },
        {
          "name": "",
          "type": "uint256"
        },
        {
          "name": "",
          "type": "uint256"
        },
        {
          "name": "",
          "type": "uint256"
        },
        {
          "name": "",
          "type": "uint256"
        }
      ],
      "payable": false,
      "stateMutability": "view",
      "type": "function",
      "signature": "0xc95bd1fa"
    }
  ],
  "bytecode": "0x608060405234801561001057600080fd5b50336000806101000a81548173ffffffffffffffffffffffffffffffffffffffff021916908373ffffffffffffffffffffffffffffffffffffffff160217905550611066806100606000396000f3fe608060405260043610610083576000357c0100000000000000000000000000000000000000000000000000000000900463ffffffff1680631c5220c2146100885780632e071db31461019a57806394810670146101f5578063a4bea88714610250578063c95bd1fa146102ab578063ca6c080214610391578063e28acd5814610485575b600080fd5b34801561009457600080fd5b50610158600480360360408110156100ab57600080fd5b81019080803590602001906401000000008111156100c857600080fd5b8201836020820111156100da57600080fd5b803590602001918460018302840111640100000000831117156100fc57600080fd5b91908080601f016020809104026020016040519081016040528093929190818152602001838380828437600081840152601f19601f820116905080830192505050505050509192919290803590602001909291905050506104d6565b604051808273ffffffffffffffffffffffffffffffffffffffff1673ffffffffffffffffffffffffffffffffffffffff16815260200191505060405180910390f35b3480156101a657600080fd5b506101f3600480360360408110156101bd57600080fd5b81019080803573ffffffffffffffffffffffffffffffffffffffff1690602001909291908035906020019092919050505061079e565b005b34801561020157600080fd5b5061024e6004803603604081101561021857600080fd5b81019080803573ffffffffffffffffffffffffffffffffffffffff1690602001909291908035906020019092919050505061087c565b005b34801561025c57600080fd5b506102a96004803603604081101561027357600080fd5b81019080803573ffffffffffffffffffffffffffffffffffffffff1690602001909291908035906020019092919050505061095a565b005b3480156102b757600080fd5b506102fa600480360360208110156102ce57600080fd5b81019080803573ffffffffffffffffffffffffffffffffffffffff169060200190929190505050610a38565b6040518080602001868152602001858152602001848152602001838152602001828103825287818151815260200191508051906020019080838360005b83811015610352578082015181840152602081019050610337565b50505050905090810190601f16801561037f5780820380516001836020036101000a031916815260200191505b50965050505050505060405180910390f35b34801561039d57600080fd5b506103a6610d36565b604051808060200187815260200186815260200185815260200184815260200180602001838103835289818151815260200191508051906020019080838360005b838110156104025780820151818401526020810190506103e7565b50505050905090810190601f16801561042f5780820380516001836020036101000a031916815260200191505b50838103825284818151815260200191508051906020019060200280838360005b8381101561046b578082015181840152602081019050610450565b505050509050019850505050505050505060405180910390f35b34801561049157600080fd5b506104d4600480360360208110156104a857600080fd5b81019080803573ffffffffffffffffffffffffffffffffffffffff169060200190929190505050610f26565b005b6000806104e283610fcf565b905060008090505b600280549050811015610576578173ffffffffffffffffffffffffffffffffffffffff1660028281548110151561051d57fe5b9060005260206000200160009054906101000a900473ffffffffffffffffffffffffffffffffffffffff1673ffffffffffffffffffffffffffffffffffffffff16141561056957600080fd5b80806001019150506104ea565b5061057f611003565b600160008373ffffffffffffffffffffffffffffffffffffffff1673ffffffffffffffffffffffffffffffffffffffff16815260200190815260200160002060c06040519081016040529081600082018054600181600116156101000203166002900480601f0160208091040260200160405190810160405280929190818152602001828054600181600116156101000203166002900480156106635780601f1061063857610100808354040283529160200191610663565b820191906000526020600020905b81548152906001019060200180831161064657829003601f168201915b50505050508152602001600182015481526020016002820154815260200160038201548152602001600482015481526020016005820180548060200260200160405190810160405280929190818152602001828054801561071957602002820191906000526020600020905b8160009054906101000a900473ffffffffffffffffffffffffffffffffffffffff1673ffffffffffffffffffffffffffffffffffffffff16815260200190600101908083116106cf575b505050505081525050905084816000018190525060028290806001815401808255809150509060018203906000526020600020016000909192909190916101000a81548173ffffffffffffffffffffffffffffffffffffffff021916908373ffffffffffffffffffffffffffffffffffffffff16021790555050819250505092915050565b60008090505b600280549050811015610877578273ffffffffffffffffffffffffffffffffffffffff166002828154811015156107d757fe5b9060005260206000200160009054906101000a900473ffffffffffffffffffffffffffffffffffffffff1673ffffffffffffffffffffffffffffffffffffffff16141561086a5781600160008573ffffffffffffffffffffffffffffffffffffffff1673ffffffffffffffffffffffffffffffffffffffff16815260200190815260200160002060010181905550610877565b80806001019150506107a4565b505050565b60008090505b600280549050811015610955578273ffffffffffffffffffffffffffffffffffffffff166002828154811015156108b557fe5b9060005260206000200160009054906101000a900473ffffffffffffffffffffffffffffffffffffffff1673ffffffffffffffffffffffffffffffffffffffff1614156109485781600160008573ffffffffffffffffffffffffffffffffffffffff1673ffffffffffffffffffffffffffffffffffffffff16815260200190815260200160002060030181905550610955565b8080600101915050610882565b505050565b60008090505b600280549050811015610a33578273ffffffffffffffffffffffffffffffffffffffff1660028281548110151561099357fe5b9060005260206000200160009054906101000a900473ffffffffffffffffffffffffffffffffffffffff1673ffffffffffffffffffffffffffffffffffffffff161415610a265781600160008573ffffffffffffffffffffffffffffffffffffffff1673ffffffffffffffffffffffffffffffffffffffff16815260200190815260200160002060040181905550610a33565b8080600101915050610960565b505050565b606060008060008060008090505b600160008873ffffffffffffffffffffffffffffffffffffffff1673ffffffffffffffffffffffffffffffffffffffff16815260200190815260200160002060050180549050811015610d27573373ffffffffffffffffffffffffffffffffffffffff16600160008973ffffffffffffffffffffffffffffffffffffffff1673ffffffffffffffffffffffffffffffffffffffff16815260200190815260200160002060050182815481101515610af957fe5b9060005260206000200160009054906101000a900473ffffffffffffffffffffffffffffffffffffffff1673ffffffffffffffffffffffffffffffffffffffff161415610d1a57610b48611003565b600160008973ffffffffffffffffffffffffffffffffffffffff1673ffffffffffffffffffffffffffffffffffffffff16815260200190815260200160002060c06040519081016040529081600082018054600181600116156101000203166002900480601f016020809104026020016040519081016040528092919081815260200182805460018160011615610100020316600290048015610c2c5780601f10610c0157610100808354040283529160200191610c2c565b820191906000526020600020905b815481529060010190602001808311610c0f57829003601f168201915b505050505081526020016001820154815260200160028201548152602001600382015481526020016004820154815260200160058201805480602002602001604051908101604052809291908181526020018280548015610ce257602002820191906000526020600020905b8160009054906101000a900473ffffffffffffffffffffffffffffffffffffffff1673ffffffffffffffffffffffffffffffffffffffff1681526020019060010190808311610c98575b505050505081525050905080600001518160200151826040015183606001518460800151849450965096509650965096505050610d2d565b8080600101915050610a46565b50600080fd5b91939590929450565b60606000806000806060610d48611003565b600160003373ffffffffffffffffffffffffffffffffffffffff1673ffffffffffffffffffffffffffffffffffffffff16815260200190815260200160002060c06040519081016040529081600082018054600181600116156101000203166002900480601f016020809104026020016040519081016040528092919081815260200182805460018160011615610100020316600290048015610e2c5780601f10610e0157610100808354040283529160200191610e2c565b820191906000526020600020905b815481529060010190602001808311610e0f57829003601f168201915b505050505081526020016001820154815260200160028201548152602001600382015481526020016004820154815260200160058201805480602002602001604051908101604052809291908181526020018280548015610ee257602002820191906000526020600020905b8160009054906101000a900473ffffffffffffffffffffffffffffffffffffffff1673ffffffffffffffffffffffffffffffffffffffff1681526020019060010190808311610e98575b5050505050815250509050806000015181602001518260400151836060015184608001518560a0015185955080905096509650965096509650965050909192939495565b600160003373ffffffffffffffffffffffffffffffffffffffff1673ffffffffffffffffffffffffffffffffffffffff1681526020019081526020016000206005018190806001815401808255809150509060018203906000526020600020016000909192909190916101000a81548173ffffffffffffffffffffffffffffffffffffffff021916908373ffffffffffffffffffffffffffffffffffffffff1602179055505050565b6000816040516020018082815260200191505060405160208183030381529060405280519060200120600190049050919050565b60c060405190810160405280606081526020016000815260200160008152602001600081526020016000815260200160608152509056fea165627a7a7230582074dbcfc700841051c4bcdbd5ae03f1479ed9aad0373c0f6b80364643e685e2f50029",
  "source": "pragma solidity >=0.4.0 <0.6.0;\n\n/**\n * The digital_identity contract handles a digital identity of a person\n */\ncontract digital_identity {\n\n\tstruct user {\n\t\tstring name;\n\t\tuint age;\n\t\tuint aadhar_number;\n\t\tuint PAN;\n\t\tuint salary;\n\t\taddress[] permittedToView;\n\t}\n\t\n\t//Admin address. Here admin is the person who created the contract\n\taddress admin;\n\n\t//Mapping from address to users called userData\n\tmapping (address => user) userData;\n\n\t//An array to store all the created accounts\n\taddress[] userAccounts;\n\n\t//Admin modifier in case we need it later\n\tmodifier onlyAdmin() {\n    require (msg.sender==admin);\n    _;\n  \t}\n\n  \t//Constructor\n\tconstructor () public {\n\t\tadmin=msg.sender;\n\t}\t\n\n\t//To Add a user to the system\n\tfunction addUser (string memory _name, uint _aadhar_number) public returns(address)  {\n\t\taddress tempAddress=getUniqueAddress(_aadhar_number);\n\t\tfor(uint i=0;i<userAccounts.length;i++)\n\t\t{\n\t\t\tif(userAccounts[i]==tempAddress)\n\t\t\t{\n\t\t\t\t//Add event which says that there is already an existing user\n\t\t\t\trevert();\n\t\t\t}\n\t\t}\n\t\tuser memory user1=userData[tempAddress];\n\t\tuser1.name=_name;\n\t\tuserAccounts.push(tempAddress);\t\n\t\treturn tempAddress;\t\n\t} \n\n\t//To update the age field of the user's details\n\tfunction updateUserAge (address _addr,uint _age) public {\n\t\tfor(uint i=0;i<userAccounts.length;i++)\n\t\t{\n\t\t\tif(userAccounts[i]==_addr)\n\t\t\t{\n\t\t\t\tuserData[_addr].age=_age;\n\t\t\t\tbreak;\n\t\t\t}\n\t\t}\n\t}\n\n\t//To update the PAN field of the user's details\n\tfunction updateUserPAN (address _addr,uint _PAN) public {\n\t\tfor(uint i=0;i<userAccounts.length;i++)\n\t\t{\n\t\t\tif(userAccounts[i]==_addr)\n\t\t\t{\n\t\t\t\tuserData[_addr].PAN=_PAN;\n\t\t\t\tbreak;\n\t\t\t}\n\t\t}\n\t}\n\n\t//To update the salary field of the user's details\n\tfunction updateUserSalary (address _addr,uint _salary) public {\n\t\tfor(uint i=0;i<userAccounts.length;i++)\n\t\t{\n\t\t\tif(userAccounts[i]==_addr)\n\t\t\t{\n\t\t\tuserData[_addr].salary=_salary;\n\t\t\t\tbreak;\n\t\t\t}\n\t\t}\n\t}\n\t\n\t//To view your own data\n\tfunction viewOwnData () public view returns(string memory,uint,uint,uint,uint,address[] memory)  {\n\t\tuser memory tempUser = userData[msg.sender];\n\t\treturn (tempUser.name,tempUser.age,tempUser.aadhar_number,tempUser.PAN,tempUser.salary,tempUser.permittedToView);\n\t}\n\n\t//To give permission to another person to view your details\n\tfunction permitToView (address _addr) public{\n\t\tuserData[msg.sender].permittedToView.push(_addr);\n\t}\n\n\t//To allow someone to view your data, provided you have given that person permission to view your data\n\tfunction viewOthersData(address _addrWhosDataToBeSeen) public view returns(string memory,uint,uint,uint,uint) {\n\t\tfor(uint i=0;i<userData[_addrWhosDataToBeSeen].permittedToView.length;i++)\n\t\t{\n\t\t\tif(userData[_addrWhosDataToBeSeen].permittedToView[i]==msg.sender)\n\t\t\t{\n\t\t\t\tuser memory tempUser = userData[_addrWhosDataToBeSeen];\n\t\t\t\treturn (tempUser.name,tempUser.age,tempUser.aadhar_number,tempUser.PAN,tempUser.salary);\n\t\t\t}\n\t\t}\n\t\t//Send event that says the user is not allowed to view this persons data\n\t\trevert();\n\t}\n\n\t//Function to generate an address to every new user registered using hashing\n\tfunction getUniqueAddress(uint seed) internal pure returns (address) {\n        return address(uint160(uint256(keccak256(abi.encode(seed)))));\n    }\n}\n\n",
  "sourcePath": "/home/atharv/GitHub_Projects/Simple-Digital-Identity/contracts/digital_identity.sol",
  "compiler": {
    "name": "solc",
    "version": "0.5.0+commit.1d4f565a.Emscripten.clang"
  },
  "schemaVersion": "3.0.2",
  "updatedAt": "2019-04-03T15:31:24.422Z",
  "devdoc": {
    "methods": {}
  },
  "userdoc": {
    "methods": {},
    "notice": "The digital_identity contract handles a digital identity of a person"
  }
}